:100000000C942A000C9465000C9481000C949D00C3
:100010000C9434000C9434000C9434000C94340090
:100020000C9434000C9434000C9434000C94340080
:100030000C9434000C9434000C9434000C94340070
:100040000C9434000C9434000C9434000C94340060
:100050000C94340011241FBECFE5D8E0DEBFCDBF25
:100060000E944F000C94B9000C9400008BB780687C
:100070008BBF8BB780648BBF8BB780628BBF85B71C
:10008000816085BF85B78D7F85BF85B7846085BF5B
:1000900085B7886085BF84B78F7B84BF08957894C7
:1000A0000E94360081B3806281BB81B3806481BBD2
:1000B00081B3806881BB82B38F7D82BB82B38F7B2B
:1000C00082BB82B38F7782BBF6CF1F920F920FB69F
:1000D0000F9211242F938F939F9382B3806282BBE0
:1000E0002FEF89E698E1215080409040E1F700C071
:1000F00000009F918F912F910F900FBE0F901F9036
:1001000018951F920F920FB60F9211242F938F9371
:100110009F9382B3806482BB2FEF89E698E12150E0
:1001200080409040E1F700C000009F918F912F9197
:100130000F900FBE0F901F9018951F920F920FB641
:100140000F9211242F938F939F9382B3806882BB69
:100150002FEF89E698E1215080409040E1F700C000
:1001600000009F918F912F910F900FBE0F901F90C5
:060170001895F894FFCF82
:00000001FF
