:100000000C942A000C943F000C943F000C943F0089
:100010000C943F000C943F000C943F000C943F0064
:100020000C943F000C943F000C943F000C943F0054
:100030000C943F000C943F000C943F000C943F0044
:100040000C943F000C943F000C943F000C943F0034
:100050000C943F0011241FBECFE5D8E0DEBFCDBF1A
:1000600010E0A0E6B0E0E8E8F4E002C005900D92F0
:10007000A038B107D9F70E94F8010C9442020C9401
:100080000000982F9695969596958770613031F07F
:1000900008F454C0623009F4A1C008959130C1F051
:1000A00028F0923039F19330B9F108954AB321E044
:1000B00030E0B90102C0660F771F8A95E2F7CB01E5
:1000C000962F909594239ABB9BB3892B8BBB089555
:1000D00047B321E030E0B90102C0660F771F8A956F
:1000E000E2F7CB01962F9095942397BB98B3892B79
:1000F00088BB089544B321E030E0B90102C0660F27
:10010000771F8A95E2F7CB01962F9095942394BBA5
:1001100095B3892B85BB089541B321E030E0B90147
:1001200002C0660F771F8A95E2F7CB01962F909554
:10013000942391BB92B3892B82BB08959130C1F077
:1001400028F0923039F19330B9F108954AB321E0A3
:1001500030E0B90102C0660F771F8A95E2F7CB0144
:100160008095942F98239ABB9BB389238BBB0895CA
:1001700047B321E030E0B90102C0660F771F8A95CE
:10018000E2F7CB018095942F982397BB98B38923EE
:1001900088BB089544B321E030E0B90102C0660F86
:1001A000771F8A95E2F7CB018095942F982394BB13
:1001B00095B3892385BB089541B321E030E0B901AF
:1001C00002C0660F771F8A95E2F7CB018095942FC6
:1001D000982391BB92B3892382BB0895913099F003
:1001E00028F09230E9F0933041F108954AB321E0CC
:1001F00030E0B90102C0660F771F8A95E2F7CB01A4
:10020000842B8ABB089547B321E030E0B90102C0D6
:10021000660F771F8A95E2F7CB01842B87BB089581
:1002200044B321E030E0B90102C0660F771F8A9520
:10023000E2F7CB01842B84BB089541B321E030E089
:10024000B90102C0660F771F8A95E2F7CB01842BB4
:1002500081BB0895982F9695969596958770611114
:100260003CC0913099F028F09230E9F0933041F1A0
:1002700008954BB321E030E0B90102C0660F771F4B
:100280008A95E2F7CB01842B8BBB089548B321E01C
:1002900030E0B90102C0660F771F8A95E2F7CB0103
:1002A000842B88BB089545B321E030E0B90102C03A
:1002B000660F771F8A95E2F7CB01842B85BB0895E3
:1002C00042B321E030E0B90102C0660F771F8A9582
:1002D000E2F7CB01842B82BB0895613009F03FC067
:1002E0009130A1F028F09230F9F0933059F108954F
:1002F0004BB321E030E0B90102C0660F771F8A9549
:10030000E2F7CB01809584238BBB089548B321E0AD
:1003100030E0B90102C0660F771F8A95E2F7CB0182
:100320008095842388BB089545B321E030E0B9016E
:1003300002C0660F771F8A95E2F7CB018095842370
:1003400085BB089542B321E030E0B90102C0660FD9
:10035000771F8A95E2F7CB018095842382BB0895AD
:10036000982F969596959695482F4770913081F0E5
:1003700028F09230B9F09330F9F028C099B3892F62
:1003800090E002C0959587954A95E2F781700895AF
:1003900026B330E0C90102C0959587954A95E2F7EA
:1003A0008170089523B330E0C90102C09595879507
:1003B0004A95E2F78170089520B330E0C90102C088
:1003C000959587954A95E2F78170089580E00895A4
:1003D000CF93C0E009C0EC2FF0E0E05AFF4F6081FE
:1003E0008C2F0E944100CF5FC032A8F3CF910895B7
:1003F0000E94E801C0E061E080E00E942A0161E023
:1004000082E00E942A0161E084E00E942A0180E1EA
:100410000E94B00181110BC0C11109C060E00E94AF
:100420002A0180E10E94B0018823D9F3C1E080E174
:100430000E94B00181110CC0C13051F460E082E033
:100440000E942A0180E10E94B0018823D9F3C2E012
:1004500080E10E94B00181110CC0C23051F460E013
:1004600084E00E942A0180E10E94B0018823D9F330
:10047000C0E080E090E001C001968C3221E092075C
:08048000D8F3B9CFF894FFCFC7
:10048800020002000200000000000000000000005E
:100498000102020202020202000000000000000045
:00000001FF
